:020000040000FA
:060000000A128A1110280B
:10000800FE00030E83120313D4000A08D5007F08EC
:10001800D6000A168A114F2F0A128A111328831341
:10002800ED30FD001F30FE00A930FF00E6308400EF
:100038000A168A15C4270A128A1183160313ED01BA
:10004800EE0183010A168A119228831603133608D3
:100058008039BB003B08C0003608BB003B07BC002A
:100068003C08C600B51F39283A283B2846144608DC
:1000780003193F2840284F28460A031D44284528CD
:100088004D280030B6000030B5000030B400003014
:10009800B300B51757280030B6000030B50000305F
:1000A800B4000030B3003A088039BB003B08C006F2
:1000B8003A08BB003B07BC003C08C500B91F6528CF
:1000C800662867284514450803196B286C287B287F
:1000D800450A031D7028712879280030BA000030BD
:1000E800B9000030B8000030B700B91783280030D5
:1000F800BA000030B9000030B8000030B700450839
:100108000319872888288D284608031D8C288D28E0
:1001180096280030B6000030B5000030B40000303A
:10012800B300892B3308BB003B08A00039080A1626
:100138008A11B5200A128A11831603132108CC00EC
:100148002008CB004B08BB00BC01BD01BE013E0826
:10015800C4003D08C3003C08C2003B08C1004C086D
:10016800BB00BC01BD01BE013E08CA003D08C90074
:100178003C08C8003B08C7003408BB003B08A00087
:1001880038080A168A11B5200A128A118316031331
:100198002108CC002008CB004B08BB00BC01BD01E6
:1001A800BE013B08C1073C0803110318013E0319AF
:1001B800DE28C2073D0803110318013E0319E5288C
:1001C800C3073E0803110318013E0319EC28C407AE
:1001D8004C08BB00BC01BD01BE013B08C7073C0879
:1001E80003110318013E0319FA28C8073D08031133
:1001F8000318013E03190129C9073E080311031812
:10020800013E03190829CA073508BB003B08A000AE
:1002180037080A168A11B5200A128A1183160313A1
:100228002108CC002008CB004B08BB00BC01BD0155
:10023800BE013B08C1073C0803110318013E03191E
:100248002629C2073D0803110318013E03192D2969
:10025800C3073E0803110318013E03193429C407D4
:100268004C08BB00BC01BD01BE013B08C7073C08E8
:1002780003110318013E03194229C8073D08031159
:100288000318013E03194929C9073E080311031839
:10029800013E03195029CA070830BB000310C10DDD
:1002A800C20DC30DC40DBB0B52293408BB003B085B
:1002B800A00037080A168A11B5200A128A11831677
:1002C80003132108CC002008CB004B08BB004C08C6
:1002D800BC00BD01BE013B08C1073C08031103185F
:1002E800013E03197829C2073D0803110318013E8E
:1002F80003197F29C3073E0803110318013E031998
:100308008629C4073308BB003B08A00038080A1632
:100318008A11B5200A128A11831603132108CC000A
:100328002008CB004B08BB004C08BC00BD01BE0137
:100338003B08C1073C0803110318013E0319A5290E
:10034800C2073D0803110318013E0319AC29C3076E
:100358003E0803110318013E0319B329C4070830E6
:10036800BB000310C10DC20DC30DC40DBB0BB529D5
:100378003308BB003B08A00037080A168A11B520CD
:100388000A128A11831603132108CC002008CB0017
:100398004B08BB004C08BC00BD01BE013B08C107AF
:1003A8003C0803110318013E0319DB29C2073D0865
:1003B80003110318013E0319E229C3073E0803117C
:1003C8000318013E0319E929C4073408BB003B0898
:1003D800A00039080A168A11B5200A128A11831654
:1003E80003132108CC002008CB004B08BB004C08A5
:1003F800BC00BD01BE013B08C7073C080311031838
:10040800013E0319082AC8073D0803110318013ED5
:1004180003190F2AC9073E0803110318013E0319DF
:10042800162ACA073508BB003B08A00038080A1678
:100438008A11B5200A128A11831603132108CC00E9
:100448002008CB004B08BB004C08BC00BD01BE0116
:100458003B08C7073C0803110318013E0319352A56
:10046800C8073D0803110318013E03193C2AC907B0
:100478003E0803110318013E0319432ACA07350829
:10048800BB003B08A00039080A168A11B5200A12D9
:100498008A11831603132108CC002008CB004B08CF
:1004A800BB004C08BC00BD01BE0108300310BB0DE9
:1004B800BC0DBD0DBE0DFF3E031D5A2A3B08C707E4
:1004C8003C0803110318013E03196B2AC8073D08AD
:1004D80003110318013E0319722AC9073E080311C4
:1004E8000318013E0319792ACA074108BB004208CC
:1004F800BC004308BD004408BE0018300310BE0C01
:10050800BD0CBC0CBB0CFF3E031D822A3B08C70771
:100518003C0803110318013E0319932AC8073D0834
:1005280003110318013E03199A2AC9073E0803114B
:100538000318013E0319A12ACA070830BB0003109B
:10054800C10DC20DC30DC40DBB0BA32A4608450738
:10055800BB00BC01BC0D3B08823ECB003C08031825
:10056800013EFF3ECC00D52A0130BB000310C70D69
:10057800C80DC90DCA0DBB0BBA2AC41FC42AC52A87
:10058800C62A47140130BB000310C10DC20DC30DAC
:10059800C40DBB0BC82AFF30CB070318CC0AFF30A9
:1005A800CC07C91FD82AD92AB82AC501C41FDD2AF1
:1005B800DE2AFA2AFF304105BB00FF304205BC00A5
:1005C800FF304305BD007F304405BE003E083D04B2
:1005D8003C043B040319F12AF22AF52AC501C50A8D
:1005E800FA2A471CF82AF92AFA2AF22A450803198E
:1005F800FE2AFF2A302B0130C707003003180130CC
:10060800C807003003180130C9070030031801304B
:10061800CA074A1C102B112B302B4708BB0048086F
:10062800BC004908BD004A08BE000130BF003E0DAD
:10063800BE0CBD0CBC0CBB0CBF0B1B2B3E08CA0070
:100648003D08C9003C08C8003B08C7000130CB077B
:100658000318CC0A0030CC074C08803AFF008030E1
:100668007F02031D392BFF304B02031C3C2B3D2B13
:10067800482B7F3083160313CA008030C90000302E
:10068800C8000030C7007D2B831603134C08803A3E
:10069800FF0080307F02031D532B01304B020318EB
:1006A800562B572B632B003083160313CA000030D8
:1006B800C9000030C8000030C700C0017D2B831678
:1006C80003134B08BB003B08C600FF30C705FF30CB
:1006D800C8057F30C9050030CA05461C742B752B28
:1006E800762BC9174608BB0003103B0CBC003C081E
:1006F800CA004008BB003B08CA044A08B6004908BB
:10070800B5004808B4004708B30008008312031373
:1007180029088039AE002E08B3002908AE002E073C
:10072800AF002F08B900A81F9A2B9B2B9C2B3914BC
:1007380039080319A02BA12BB02B390A031DA52BAF
:10074800A62BAE2B0030A9000030A8000030A7006F
:100758000030A600A817B82B0030A9000030A80068
:100768000030A7000030A6002D088039AE002E0802
:10077800B3062D08AE002E07AF002F08B800AC1F37
:10078800C62BC72BC82B381438080319CC2BCD2BF4
:10079800DC2B380A031DD12BD22BDA2B0030AD000D
:1007A8000030AC000030AB000030AA00AC17E42BDE
:1007B8000030AD000030AC000030AB000030AA00C3
:1007C80038080319E82BE92BEE2B3908031DED2B0C
:1007D800EE2BF72B0030A9000030A8000030A7004E
:1007E8000030A600EA2E2608AE002E08F0002C08DD
:1007F8000A128A11D8270A128A1171088312031360
:10080800BF007008BE003E08AE00AF01B001B101E4
:100818003108B7003008B6002F08B5002E08B4001C
:100828003F08AE00AF01B001B1013108BD0030088A
:10083800BC002F08BB002E08BA002708AE002E08FF
:10084800F0002B080A128A11D8270A128A11710897
:1008580083120313BF007008BE003E08AE00AF014C
:10086800B001B1012E08B4072F0803110318013E87
:1008780003193F2CB507300803110318013E03196B
:10088800462CB607310803110318013E03194D2CF5
:10089800B7073F08AE00AF01B001B1012E08BA0793
:1008A8002F0803110318013E03195B2CBB073008FE
:1008B80003110318013E0319622CBC073108031108
:1008C8000318013E0319692CBD072808AE002E083D
:1008D800F0002A080A128A11D8270A128A11710808
:1008E80083120313BF007008BE003E08AE00AF01BC
:1008F800B001B1012E08B4072F0803110318013EF7
:100908000319872CB507300803110318013E031992
:100918008E2CB607310803110318013E0319952CD4
:10092800B7073F08AE00AF01B001B1012E08BA0702
:100938002F0803110318013E0319A32CBB07300825
:1009480003110318013E0319AA2CBC07310803112F
:100958000318013E0319B12CBD070830AE0003107F
:10096800B40DB50DB60DB70DAE0BB32C2708AE0000
:100978002E08F0002A080A128A11D8270A128A11AA
:10098800710883120313BF007008BE003E08AE0052
:100998003F08AF00B001B1012E08B4072F080311BA
:1009A8000318013E0319D92CB507300803110318A1
:1009B800013E0319E02CB607310803110318013E64
:1009C8000319E72CB7072608AE002E08F0002B08FD
:1009D8000A128A11D8270A128A117108831203137E
:1009E800BF007008BE003E08AE003F08AF00B0016F
:1009F800B1012E08B4072F0803110318013E03198B
:100A0800062DB507300803110318013E03190D2DF3
:100A1800B607310803110318013E0319142DB7074F
:100A28000830AE000310B40DB50DB60DB70DAE0B02
:100A3800162D2608AE002E08F0002A080A128A1180
:100A4800D8270A128A11710883120313BF0070088D
:100A5800BE003E08AE003F08AF00B001B1012E084D
:100A6800B4072F0803110318013E03193C2DB507DD
:100A7800300803110318013E0319432DB607310846
:100A880003110318013E03194A2DB7072708AE00C2
:100A98002E08F0002C080A128A11D8270A128A1187
:100AA800710883120313BF007008BE003E08AE0031
:100AB8003F08AF00B001B1012E08BA072F08031193
:100AC8000318013E0319692DBB07300803110318E9
:100AD800013E0319702DBC07310803110318013EAC
:100AE8000319772DBD072808AE002E08F0002B0843
:100AF8000A128A11D8270A128A117108831203135D
:100B0800BF007008BE003E08AE003F08AF00B0014D
:100B1800B1012E08BA072F0803110318013E031963
:100B2800962DBB07300803110318013E03199D2DAC
:100B3800BC07310803110318013E0319A42DBD0792
:100B48002808AE002E08F0002C080A128A11D827AF
:100B58000A128A11710883120313BF007008BE00BD
:100B68003E08AE003F08AF00B001B10108300310E5
:100B7800AE0DAF0DB00DB10DFF3E031DBB2D2E0800
:100B8800BA072F0803110318013E0319CC2DBB0720
:100B9800300803110318013E0319D32DBC0731088F
:100BA80003110318013E0319DA2DBD073408AE00FE
:100BB8003508AF003608B0003708B1001830031008
:100BC800B10CB00CAF0CAE0CFF3E031DE32D2E088C
:100BD800BA072F0803110318013E0319F42DBB07A8
:100BE800300803110318013E0319FB2DBC07310817
:100BF80003110318013E0319022EBD070830AE0089
:100C08000310B40DB50DB60DB70DAE0B042E390893
:100C18003807AE00AF01AF0D2E08823EBE002F0888
:100C28000318013EFF3EBF00362E0130AE00031010
:100C3800BA0DBB0DBC0DBD0DAE0B1B2EB71F252E5F
:100C4800262E272E3A140130AE000310B40DB50D30
:100C5800B60DB70DAE0B292EFF30BE070318BF0A1D
:100C6800FF30BF07BC1F392E3A2E192EB801B71F07
:100C78003E2E3F2E5B2EFF303405AE00FF3035058B
:100C8800AF00FF303605B0007F303705B1003108BE
:100C980030042F042E040319522E532E562EB80159
:100CA800B80A5B2E3A1C592E5A2E5B2E532E380842
:100CB80003195F2E602E912E0130BA0700300318F9
:100CC8000130BB07003003180130BC07003003189F
:100CD8000130BD073D1C712E722E912E3A08AE00D0
:100CE8003B08AF003C08B0003D08B1000130B2003D
:100CF800310DB10CB00CAF0CAE0CB20B7C2E310820
:100D0800BD003008BC002F08BB002E08BA00013017
:100D1800BE070318BF0A0030BF073F08803AFF002C
:100D280080307F02031D9A2EFF303E02031C9D2E49
:100D38009E2EA92E7F3083120313BD008030BC0085
:100D48000030BB000030BA00DE2E831203133F08C8
:100D5800803AFF0080307F02031DB42E01303E022E
:100D68000318B72EB82EC42E003083120313BD000B
:100D78000030BC000030BB000030BA00B301DE2EEA
:100D8800831203133E08AE002E08B900FF30BA05DF
:100D9800FF30BB057F30BC050030BD05391CD52EA2
:100DA800D62ED72EBC173908AE0003102E0CAF0074
:100DB8002F08BD003308AE002E08BD043D08A90069
:100DC8003C08A8003B08A7003A08A6000800013024
:100DD8000A168A15D3270A128A11C23083160313FA
:100DE800D0002030CF000030CE000030CD003D30A4
:100DF800B600B430B5003930B4005830B3000A1624
:100E08008A15E7270A128A11831603132008A500FA
:100E18002108A6000030A61BFF30A700A80001305B
:100E28000A128A1574210A128A11831603132808D4
:100E3800BA002708B9002608B8002508B7000A1222
:100E48008A1129200A128A11831603133608D4003E
:100E58003508D3003408D2003308D1000A128A15A5
:100E680078250A128A11831603135008E9004F08DF
:100E7800E8004E08E7004D08E6004230D000003098
:100E8800CF000030CE000030CD003F30B600E63055
:100E9800B5006630B4006630B3006908BA00680867
:100EA800B9006708B8006608B7000A128A11292035
:100EB8000A128A11831603133608D4003508D300A2
:100EC8003408D2003308D1000A128A1578250A128C
:100ED8008A11831603135008E4004F08E3004E08F4
:100EE800E2004D08E10083120313081C7C2F7D2FBC
:100EF800D72F0A168A119F210A128A1101300A1661
:100F08008A116E210A128A118312031388188D2FF1
:100F18008E2FB32F831603136908A3006808A20055
:100F28006708A1006608A0000A168A1160240A1240
:100F38008A11831603132308C6002208C500210856
:100F4800C4002008C3000A168A1172200A128A11E6
:100F580043300A168A1153200A128A11D72F831692
:100F680003136408A3006308A2006208A1006108D3
:100F7800A0000A168A1160240A128A118316031324
:100F88002308C6002208C5002108C4002008C300A1
:100F98000A168A1172200A128A1146300A168A1114
:100FA80053200A128A110800F800F401F5017008AC
:100FB800F200F3017208F6007308F700781CE52FB9
:100FC800E62FEC2F7608F4070318F50A7708F507DB
:100FD80001300310F60DF70DFF3E031DED2F031032
:100FE800F80C7808031DF92FFA2FE22F7508F10085
:060FF8007408F00008007F
:10100A00831603135B08DC005C08EB00AB010030BD
:10101A000A168A1139200A128A15831603135408EC
:10102A00803AFF0080307F02031D1D280A305302D8
:10103A00031820282128272830300A168A1153201D
:10104A000A128A15831603135308C3005408C400EE
:10105A000030C41BFF30C500C6000A168A11722070
:10106A000A128A153A300A168A1153200A128A1568
:10107A00831603135608803AFF0080307F02031D4F
:10108A0048280A30550203184B284C285228303079
:10109A000A168A1153200A128A1583160313550851
:1010AA00C3005608C4000030C41BFF30C500C60088
:1010BA000A168A1172200A128A153A300A168A11F9
:1010CA0053200A128A15831603135808803AFF0020
:1010DA0080307F02031D73280A30570203187628CE
:1010EA0077287D2830300A168A1153200A128A1569
:1010FA00831603135708C3005808C4000030C41BE2
:10110A00FF30C500C6000A168A1172200A128A1513
:10111A0083160313AB0109300A168A1139200A1201
:10112A008A1502308316031359065A04031D9E2892
:10113A009F28B7286B080319A328A428AE281030C3
:10114A00AE008030AF000A168A11D6210A128A151B
:10115A00B7280D30AE008030AF000A168A11D621AA
:10116A000A128A15080083120313A0002008031923
:10117A00BF28C028D428F81FC328C428D428750932
:10118A00A2007609A3007709A4007809A500A20A9B
:10119A000319A30A0319A40A0319A50ADC28780863
:1011AA00A5007708A4007608A3007508A2007808AD
:1011BA00770476047504031DE328E428ED2800303B
:1011CA00F8000030F7000030F6000030F50073290F
:1011DA009630F9007908A100FF280130F900790852
:1011EA00A10701300310A50CA40CA30CA20CFF3E0E
:1011FA00031DF728FE302505031D04290529F228B9
:10120A0021290130F9007908A1070130A20700302D
:10121A0003180130A307003003180130A407003077
:10122A0003180130A50701300310A50CA40CA30C68
:10123A00A20CFF3E031D1929FF302505031D26298F
:10124A002729062933290130A1020130F9000310A8
:10125A00A20DA30DA40DA50DF90B2C29A41B36294B
:10126A0037293D290230210203183C293D29282922
:10127A002118402941294929FF30A205FF30A30539
:10128A007F30A405FF30A5050310A10C2108F90041
:10129A00FA01FB01FC0118300310F90DFA0DFB0DE0
:1012AA00FC0DFF3E031D51297908A2047A08A30404
:1012BA007B08A4047C08A50420080319652966296B
:1012CA006B29F81F69296A296B29A5172508F800CF
:1012DA002408F7002308F6002208F5000800831600
:1012EA000313AD002D0803197B297C299029A81F17
:1012FA007F29802990292509AF002609B0002709EE
:10130A00B1002809B200AF0A0319B00A0319B10AD9
:10131A000319B20A98292808B2002708B10026083A
:10132A00B0002508AF002808270426042504031D59
:10133A009F29A029A9290030A8000030A700003061
:10134A00A6000030A5002F2A9630A9002908AE0071
:10135A00BB290130A9002908AE0701300310B20CDD
:10136A00B10CB00CAF0CFF3E031DB329FE303205A1
:10137A00031DC029C129AE29DD290130A900290888
:10138A00AE070130AF07003003180130B007003054
:10139A0003180130B107003003180130B2070130D9
:1013AA000310B20CB10CB00CAF0CFF3E031DD529D3
:1013BA00FF303205031DE229E329C229EF29013052
:1013CA00AE020130A9000310AF0DB00DB10DB20D80
:1013DA00A90BE829B11BF229F329F92902302E02B7
:1013EA000318F829F929E4292E18FC29FD29052AC8
:1013FA00FF30AF05FF30B0057F30B105FF30B205D1
:10140A000310AE0C2E08A900AA01AB01AC011830DA
:10141A000310A90DAA0DAB0DAC0DFF3E031D0D2A3D
:10142A002908AF042A08B0042B08B1042C08B20416
:10143A002D080319212A222A272AA81F252A262A03
:10144A00272AB2173208A8003108A7003008A600D8
:10145A002F08A500080083160313A700A80100306F
:10146A008B1B0130A2008B130608A1002108A300E0
:10147A00003083120313861B013083160313A40062
:10148A00003083120313061B013083160313A500D1
:10149A0086012003031D522A532A572A1030A1001D
:1014AA002108A8002708A1002108A6002608A100F3
:1014BA0004300310A10CFF3E031D5E2A21082804F4
:1014CA00831203138600861683160313A901AA0141
:1014DA000130A9070318AA0A0030AA0700302A0215
:1014EA00023003192902031C7B2A7C2A6D2A8312E3
:1014FA000313861283160313A901AA010130A9074F
:10150A000318AA0A0030AA0700302A020230031977
:10151A002902031C912A922A832A27080F392804B0
:10152A00831203138600861683160313A901AA01E0
:10153A000130A9070318AA0A0030AA0700302A02B4
:10154A00023003192902031CAB2AAC2A9D2A8312F2
:10155A000313861283160313A901AA010130A907EE
:10156A000318AA0A0030AA0700302A020230031917
:10157A002902031CC12AC22AB32A10308312031378
:10158A008600831603132418CB2ACF2A8312031347
:10159A008617D22A83120313861383160313251878
:1015AA00D72ADB2A831203130617DE2A83120313B0
:1015BA0006138316031323088600831203130608EF
:1015CA000B108B108316031322080319ED2AEE2A37
:1015DA00EF2A8B1708008312031343088039C800C7
:1015EA004808D0004308C8004807C9004908D20083
:1015FA00C21F002B012B022B521452080319062B6F
:10160A00072B172B520A031D0B2B0C2B142B003004
:10161A00C3000030C2000030C1000030C000C21751
:10162A00C3011F2B0030C3000030C2000030C100CC
:10163A000030C00047088039C8004808D100510866
:10164A0050060319292B2A2B2B2B50174708C800A1
:10165A004807C9004908D100C61F342B352B362B41
:10166A005114510803193A2B3B2B4B2B510A031DDA
:10167A003F2B402B482B0030C7000030C6000030FB
:10168A00C5000030C400C617C701532B0030C7007D
:10169A000030C6000030C5000030C40052085102B4
:1016AA000318582B592B9D2B501F5C2B5D2B612B3C
:1016BA008030C8004808D0065208C8004808D3003D
:1016CA005108C8004808D2005308C8004808D10089
:1016DA004008C8004808D3004408C8004808C000A9
:1016EA005308C8004808C4004108C8004808D30085
:1016FA004508C8004808C1005308C8004808C50082
:10170A004208C8004808D3004608C8004808C20072
:10171A005308C8004808C6004308C8004808D30050
:10172A004708C8004808C3005308C8004808C7004B
:10173A00D3015108C800C9014908CB005208480220
:10174A00CA00031CCB034B08803AFF0080307F029B
:10175A00031DB12B1A304A02031CB42BB52BF22BF2
:10176A00831203134308420441044004031DBE2BA1
:10177A00C02B0130C12B0030C8004808D30000300C
:10178A00C3000030C2000030C1000030C000510860
:10179A00C8004808D200FA2B531CD42BD52BDE2BB9
:1017AA005308C8000310480C0138C9004908D3007F
:1017BA00E02B0310D30C401CE32BE42BE52BD317AF
:1017CA000130C800430DC30CC20CC10CC00CC80BBD
:1017DA00E72B0130C8004808D207831203135108C7
:1017EA005202031CF92BFA2BD12B501BFD2BFE2B7B
:1017FA00492C5208031D022C032C0C2C0030C30068
:10180A000030C2000030C1000030C000772D44080B
:10181A00C007450803110318013E0319152CC10717
:10182A00460803110318013E03191C2CC207470876
:10183A0003110318013E0319232CC307431C262C4A
:10184A00272CFD2C531C2A2C2B2C342C5308C80073
:10185A000310480C0138C9004908D300362C03107C
:10186A00D30C401C392C3A2C3B2CD3170130C8001E
:10187A00430DC30CC20CC10CC00CC80B3D2C01306B
:10188A00C8004808D207FD2C4308803AFF004708E1
:10189A00803A7F02031D5B2C46084202031D5B2C23
:1018AA0045084102031D5B2C4408400203185E2CC4
:1018BA005F2CB72CFF30C800FF30C900FF30CA00C8
:1018CA00FF30CB004408CC004508CD004608CE00C6
:1018DA004708CF004008CC024108031C410F762C70
:1018EA00772CCD024208031C420F7C2C7D2CCE02A1
:1018FA004308031C430F822C832CCF024C08C807D1
:10190A004D0803184D0F8A2C8B2CC9074E08031853
:10191A004E0F902C912CCA074F0803184F0ACB0779
:10192A004B08C3004A08C2004908C1004808C00061
:10193A008030C8004808D006D309D30A5308031DCB
:10194A00A72CA82CC52C0130C00700300318013081
:10195A00C107003003180130C207003003180130F4
:10196A00C307C52C4408C0024508031C450FC10221
:10197A004608031C460FC2024708031C470FC3024E
:10198A004308420441044004031DCC2CCD2CF92CFD
:10199A005308031DD12CD22CF92C0030C30000307F
:1019AA00C2000030C1000030C000772D0130C800ED
:1019BA000310C00DC10DC20DC30DC80BDD2CD31F02
:1019CA00E72CE82CE92C4014531CEC2CED2CF02CC1
:1019DA000314D30DF22C0310D30D52080319F62C5D
:1019EA00F72CF92C0130D202C21FFC2CFD2CDB2C67
:1019FA00D101D31F012D022D102D53087F39031950
:101A0A00072D082D0B2DD101D10A102D401C0E2DAA
:101A1A000F2D102D082D51080319142D152D492DA0
:101A2A000130C007003003180130C1070030031825
:101A3A000130C207003003180130C307431C262DAA
:101A4A00272D492D4008C8004108C9004208CA008C
:101A5A004308CB000130CC004B0DCB0CCA0CC90C8F
:101A6A00C80CCC0B312D4B08C3004A08C2004908E8
:101A7A00C1004808C000520A0319442D452D492DBA
:101A8A000130C8004808D207520A03194D2D4E2DBD
:101A9A00532D5208031D522D532D612D0030C300C2
:101AAA000030C2000030C1000030C0005208031DDF
:101ABA005F2D602D612DD001521C642D652D672D7F
:101ACA00C2176B2D7F30C8004808C2055208C800EB
:101ADA000310480CC9004908C300D01F752D762D84
:101AEA00772DC31708008316031350088039D500D1
:101AFA005508DD005008D5005507D6005608DF0006
:101B0A00CF1F882D892D8A2D5F145F0803198E2D0A
:101B1A008F2D9F2D5F0A031D932D942D9C2D003030
:101B2A00D0000030CF000030CE000030CD00CF17FB
:101B3A00D001A72D0030D0000030CF000030CE00F9
:101B4A000030CD0054088039D5005508DE005E0803
:101B5A005D060319B12DB22DB32D5D175408D500BA
:101B6A005507D6005608DE00D31FBC2DBD2DBE2D4D
:101B7A005E145E080319C22DC32DD32D5E0A031D00
:101B8A00C72DC82DD02D0030D4000030D30000302E
:101B9A00D2000030D100D317D401DB2D0030D4009D
:101BAA000030D3000030D2000030D1005F085E025E
:101BBA000318E02DE12D252E5D1FE42DE52DE92DDD
:101BCA008030D5005508DD065F08D5005508E000CD
:101BDA005E08D5005508DF006008D5005508DE000C
:101BEA004D08D5005508E0005108D5005508CD002C
:101BFA006008D5005508D1004E08D5005508E00008
:101C0A005208D5005508CE006008D5005508D20004
:101C1A004F08D5005508E0005308D5005508CF00F5
:101C2A006008D5005508D3005008D5005508E000D3
:101C3A005408D5005508D0006008D5005508D400CE
:101C4A00E0015E08D500D6015608D8005F085502A3
:101C5A00D700031CD8035808803AFF0080307F025F
:101C6A00031D392E1A305702031C3C2E3D2E7A2EA4
:101C7A008316031350084F044E044D04031D462EC9
:101C8A00482E0130492E0030D5005508E0000030BA
:101C9A00D0000030CF000030CE000030CD005E080A
:101CAA00D5005508DF00822E601C5C2E5D2E662E44
:101CBA006008D5000310550C0138D6005608E0001C
:101CCA00682E0310E00C4D1C6B2E6C2E6D2EE01747
:101CDA000130D500500DD00CCF0CCE0CCD0CD50B4D
:101CEA006F2E0130D5005508DF07831603135E08EF
:101CFA005F02031C812E822E592E5D1B852E862E95
:101D0A00D12E5F08031D8A2E8B2E942E0030D00010
:101D1A000030CF000030CE000030CD00FF2F510838
:101D2A00CD07520803110318013E03199D2ECE0751
:101D3A00530803110318013E0319A42ECF075408B0
:101D4A0003110318013E0319AB2ED007501CAE2E07
:101D5A00AF2E852F601CB22EB32EBC2E6008D50084
:101D6A000310550C0138D6005608E000BE2E0310A9
:101D7A00E00C4D1CC12EC22EC32EE0170130D50037
:101D8A00500DD00CCF0CCE0CCD0CD50BC52E01307E
:101D9A00D5005508DF07852F5008803AFF00540800
:101DAA00803A7F02031DE32E53084F02031DE32EE0
:101DBA0052084E02031DE32E51084D020318E62E67
:101DCA00E72E3F2FFF30D500FF30D600FF30D70077
:101DDA00FF30D8005108D9005208DA005308DB0056
:101DEA005408DC004D08D9024E08031C4E0FFE2E83
:101DFA00FF2EDA024F08031C4F0F042F052FDB02B8
:101E0A005008031C500F0A2F0B2FDC025908D50764
:101E1A005A0803185A0F122F132FD6075B080318F4
:101E2A005B0F182F192FD7075C0803185C0AD8070D
:101E3A005808D0005708CF005608CE005508CD00E4
:101E4A008030D5005508DD06E009E00A6008031D68
:101E5A002F2F302F4D2F0130CD07003003180130BE
:101E6A00CE07003003180130CF07003003180130C5
:101E7A00D0074D2F5108CD025208031C520FCE0233
:101E8A005308031C530FCF025408031C540FD002EB
:101E9A0050084F044E044D04031D542F552F812F13
:101EAA006008031D592F5A2F812F0030D0000030AF
:101EBA00CF000030CE000030CD00FF2F0130D5001A
:101ECA000310CD0DCE0DCF0DD00DD50B652FE01F14
:101EDA006F2F702F712F4D14601C742F752F782F50
:101EEA000314E00D7A2F0310E00D5F0803197E2F0B
:101EFA007F2F812F0130DF02CF1F842F852F632F81
:101F0A00DE01E01F892F8A2F982F60087F39031975
:101F1A008F2F902F932FDE01DE0A982F4D1C962FBC
:101F2A00972F982F902F5E0803199C2F9D2FD12F42
:101F3A000130CD07003003180130CE0700300318F6
:101F4A000130CF07003003180130D007501CAE2FE4
:101F5A00AF2FD12F4D08D5004E08D6004F08D70015
:101F6A005008D8000130D900580DD80CD70CD60C1F
:101F7A00D50CD90BB92F5808D0005708CF005608EE
:101F8A00CE005508CD005F0A0319CC2FCD2FD12FD3
:101F9A000130D5005508DF075F0A0319D52FD62F60
:101FAA00DB2F5F08031DDA2FDB2FE92F0030D0006B
:101FBA000030CF000030CE000030CD005F08031D96
:101FCA00E72FE82FE92FDD015F1CEC2FED2FEF2F14
:101FDA00CF17F32F7F30D5005508CF055F08D500FE
:101FEA000310550CD6005608D000DD1FFD2FFE2F1A
:101FFA00FF2FD0170800FF1B0A2883137F188317A7
:10200A000008840A0319FF0A080010308A0004082D
:10201A00840A82070034543445344D3450343A34F7
:10202A00203420340034453452345234003441349C
:0A203A004D34003450344D340034AE
:102046000530F200F20B2528831203131F151F1902
:102056002D282E282A281E08F400831603131E088E
:10206600F3007408F1007308F000080083160313E8
:10207600AD002B08031D4028412846288030AC00BF
:102086002C08AB004A28C030AC002C08AB00A001DD
:102096002D082B070A128A1530220A168A11080003
:1020A60083160313AB00A001A00A2B080A128A1597
:1020B60030220A168A1183160313AC01AD010130D2
:1020C600AC070318AD0A0030AD0700302D02C8304A
:1020D60003192C02031C7028712862280800831635
:1020E60003134608BE004508BD004408BC0043086B
:1020F600BB000A30BF000030C000C7300A168A1184
:102106000D210A168A11C73083160313AE0000305C
:10211600AF000A168A11D6210A168A1108000A1675
:102126008A114C220A168A11013083160313A00065
:102136000030A1000A168A11DE200A168A110A1634
:102146008A118F220A168A110A128A11EB260A169A
:102156008A110A168A110E220A168A1197280A125D
:102166008A11102883160313A800A401A5012008CC
:10217600A200A3012208A6002308A700281CC42841
:10218600C528CB282608A4070318A50A2708A507EB
:1021960001300310A60DA70DFF3E031DCC2803102A
:1021A600A80C2808031DD828D928C1282508A1006D
:1021B6002408A00008003030831203139000831611
:1021C6000313A401A501FB28831203130C1010109E
:1021D60038308F008E0110140C1CF228F328EF28DB
:1021E600013083160313A4070318A50A0030A507B8
:1021F6002108A3002008A2000310A20DA30D2308A6
:102206002502031D082922082402031C0B290C2978
:10221600E728080083160313C200BE1F13291429DA
:102226002A292D30C100420884004108831380000A
:102236000130C1004108C207BB09BC09BD09BE097E
:10224600BB0A0319BC0A0319BD0A0319BE0A3E08D4
:10225600B1003D08B0003C08AF003B08AE004008A6
:10226600B3003F08B20042080A168A1166250A160C
:102276008A110800F00101300A168A11A1260A16F1
:102286008A11FB01FC010130FB070318FC0A003030
:10229600FC0703307C02E83003197B02031C542937
:1022A60055294629F00102300A168A11A1260A1676
:1022B6008A11FB01FC010130FB070318FC0A003000
:1022C600FC0703307C02E83003197B02031C6C29EF
:1022D6006D295E29080083160313AF00FF30AE0098
:1022E6002E08B100B001932930082F0784000A1682
:1022F6008A110A200A168A11AE002E08B10031088A
:102306000319862987298D2931080A168A1153202F
:102316000A168A11013083160313AE002E08B00781
:1023260031080319972998299E2910303002031C79
:102336009D299E297729080083160313A0010130E1
:102346000A128A1530220A168A1183160313AB0164
:10235600AC010130AB070318AC0A0030AC07033000
:102366002C02E83003192B02031CBA29BB29AC291D
:10237600A00102300A128A1530220A168A11831623
:102386000313AB01AC010130AB070318AC0A0030F4
:10239600AC0703302C02E83003192B02031CD429A6
:1023A600D529C6290800FF3083160313B00030086C
:1023B600B200B101022A31082E0784002F08031843
:1023C6002F0A83120313FF000A168A1100200A1629
:1023D6008A1183160313B0003008B20032080319BD
:1023E600F529F629FC2932080A168A1153200A16FD
:1023F6008A11013083160313B0003008B107320882
:102406000319062A072A0D2A10303102031C0C2A4A
:102416000D2ADE29080083120313081D132A142A25
:10242600192A0A168A1194230A168A11831203138B
:1024360008181E2A1F2A4B2A0A168A119F210A16D5
:102446008A11831603136C08DD00DE015D08D300D4
:102456005E08D4006E08DF00E0015F08D500600862
:10246600D6006D08E100E2016108D7006208D800D5
:102476006A08E300E4016308D9006408DA006B081F
:10248600E5006508DB000A128A1505200A168A117E
:10249600080007308316031388008601831203138E
:1024A600860188018B160730831603138100A0303E
:1024B6008B008B170A168A11DC240A168A110A1653
:1024C6008A15B0270A168A11831603136C08DD00D5
:1024D600DE015D08D3005E08D4006E08DF00E0016F
:1024E6005F08D5006008D6006D08E100E2016108CA
:1024F600D7006208D8006A08E300E4016308D9003F
:102506006408DA006B08E5006508DB000A128A1524
:1025160005200A168A110800013083160313A0004D
:102526002008ED073C306D02031C9A2A9B2AA02A3C
:10253600ED010130A0002008EE073C306E02031CBE
:10254600A52AA62AAB2AEE010130A0002008EC0736
:102556000B306C06031DB02AB12AC72A3B306E0623
:10256600031DB62AB72AC72A3B306D06031DBC2AAF
:10257600BD2AC72A6B080319C12AC32A0130C42AF7
:102586000030A0002008EB000D306C02031CCC2AA2
:10259600CD2AE22A6A03031DD12AD22ADA2A183062
:1025A6006C02031CD72AD82AE22AEC01E22A0D3053
:1025B6006C02031CDF2AE02AE22AEC01EC0A08007E
:1025C6008316031323082204210420040319EC2A8A
:1025D600ED2A302BA901A90AFD2A0130A800031013
:1025E600A00DA10DA20DA30DA80BF22A0130A80083
:1025F6002808A907A31F002B012BF02A230827026E
:10260600031D0F2B22082602031D0F2B210825026E
:10261600031D0F2B20082402031C122B132B212B26
:102626002008A4022108031C210FA5022208031C6E
:10263600220FA6022308031C230FA7020130031052
:10264600A30CA20CA10CA00CFF3E031D222B0130F3
:10265600A902031D2F2B302B012B2708A3002608C8
:10266600A2002508A1002408A00008008316031371
:10267600A601A31F3F2B402B472BA209A309A20AA1
:102686000319A30AA601A60AA11F4A2B4B2B502BFE
:10269600A009A109A00A0319A10A20082104031907
:1026A600552B562B852BA501A50A642B013003104B
:1026B600A00DA10DFF3E031D5A2B0130A4002408D6
:1026C600A507A11F672B682B592B21082302031D81
:1026D6006E2B20082202031C712B722B782B2008EC
:1026E600A2022108031CA303A30201300310A10CBC
:1026F600A00CFF3E031D792B0130A502031D842B80
:10270600852B682B26080319892B8A2B8F2BA20968
:10271600A309A20A0319A30A2308A1002208A000FC
:102726000800831603136A03031D9A2B9B2BD02BD9
:102736006B0803199F2BA02BC02B0C30A000003078
:10274600A1006C08B300B4013308A2003408A3004A
:102756000A168A1139230A168A11831603132008CA
:10276600B5003508EC001030AE008030AF000A1618
:102776008A11D6210A168A11C92B0D30AE00803077
:10278600AF000A168A11D6210A168A11023083165C
:102796000313B3003308EA00F72B02306A06031D61
:1027A600D52BD62BF72B6B080319DA2BDB2BEA2B51
:1027B6006C080C3EB3003308EC000630AE008030E7
:1027C600AF000A168A11D6210A168A11F32B063093
:1027D600AE008030AF000A168A11D6210A168A1179
:1027E60083160313EA01EA0A08000030831603136E
:1027F600AC000030AB000030AA000030A90023086E
:102806002204210420040319092C0A2C572CAD019B
:10281600AD0A1A2C0130A8000310A00DA10DA20DBF
:10282600A30DA80B0F2C0130A8002808AD07A31F85
:102836001D2C1E2C0D2C0130A8000310A90DAA0D6D
:10284600AB0DAC0DA80B202C23082702031D352C3D
:1028560022082602031D352C21082502031D352CCE
:1028660020082402031C382C392C482C2008A402EA
:102876002108031C210FA5022208031C220FA60211
:102886002308031C230FA702291401300310A30CED
:10289600A20CA10CA00CFF3E031D492C0130AD0279
:1028A600031D562C572C1E2C2C08A3002B08A20007
:1028B6002A08A1002908A0000800031083160313A4
:1028C600220D230DA4002408AA002A08031D6C2C3F
:1028D6006D2C762C0030A3000030A2000030A10041
:1028E6000030A000DB2C2008A4002108A500220847
:1028F600A6002308A7001F300310A70CA60CA50CE2
:10290600A40CFF3E031D7F2C2408A8002808A9005C
:10291600A217FF30A005FF30A105FF30A205003049
:10292600A3059630AA02AA1F992C9A2CB42C2A0821
:10293600803A973E0318A02CA12CA22C6D2C0130B6
:102946000310A30CA20CA10CA00CFF3E031DA32C8C
:102956000130A4002408AA07031DB22CB32CA22C14
:10296600CB2C20302A02031CB92CBA2CC62C6D2C79
:102976000130A4000310A00DA10DA20DA30DA40B00
:10298600BD2C0130AA022A08031DCA2CCB2CBB2C55
:1029960029080319CF2CD02CDB2CA009A109A209E8
:1029A600A309A00A0319A10A0319A20A0319A30A73
:1029B600080083160313A00133300A128A15302249
:1029C6000A168A1183160313AD01AE010130AD0755
:1029D6000318AE0A0030AE0703302E02E8300319A2
:1029E6002D02031CF72CF82CE92CA00132300A1218
:1029F6008A1530220A168A1183160313AD01AE0119
:102A06000130AD070318AE0A0030AE0703302E02C0
:102A1600E83003192D02031C112D122D032DA001E0
:102A26002C300A128A1530220A168A1183160313CD
:102A3600AD01AE010130AD070318AE0A0030AE0796
:102A460003302E02E83003192D02031C2B2D2C2DEA
:102A56001D2DA00106300A128A1530220A168A1187
:102A660083160313AD01AE010130AD070318AE0A9C
:102A76000030AE0703302E02E83003192D02031C86
:102A8600452D462D372DA0010C300A128A1530220D
:102A96000A168A1183160313AD01AE010130AD0784
:102AA6000318AE0A0030AE0703302E02E8300319D1
:102AB6002D02031C5F2D602D512D0A168A119F21B0
:102AC6000A168A11080083160313BA003108B800E3
:102AD6003008B7002F08B6002E08B5003208A0004F
:102AE6003308A1000030A11BFF30A200A300380864
:102AF600A7003708A6003608A5003508A4000A1660
:102B06008A11F8230A168A11831603132308B800BC
:102B16002208B7002108B6002008B5000130B4002D
:102B26003408BA073808370436043504031D9C2DCB
:102B36009D2D712D3A088400831380010130BA025D
:102B46003208A0003308A1000030A11BFF30A2000C
:102B5600A3003108A7003008A6002F08A5002E08FC
:102B6600A4000A168A11E3220A168A118316031391
:102B76002008B4003408B9003208A0003308A100C8
:102B86000030A11BFF30A200A3003108A7003008C7
:102B9600A6002F08A5002E08A4000A168A11F823FD
:102BA6000A168A11831603132308B1002208B000FF
:102BB6002108AF002008AE000A303902031CE42DBC
:102BC600E52DE92D0730B4003408B9073030B400DC
:102BD6003408B9073908B4003A0884003408831366
:102BE60080000130BA02310830042F042E04031D80
:102BF600FD2DFE2DA32D080000307005F8000030D5
:102C06007105F90080307205FA007F307305FB000C
:102C16007B087A0479047804031D122E132E1B2ECA
:102C26000030F3000030F2000030F1000030F00018
:102C360000307405F80000307505F900803076051F
:102C4600FA007F307705FB007B087A047904780464
:102C5600031D2E2E2F2E372E0030F7000030F600E3
:102C66000030F5000030F400F31F3A2E3B2E5F2EA5
:102C76000030F8000030F9000030FA008030FB0028
:102C86007008F8027108031C710F4A2E4B2EF902C8
:102C96007208031C720F502E512EFA027308031C81
:102CA600730F562E572EFB027B08F3007A08F200AC
:102CB6007908F1007808F000F71F622E632E872E40
:102CC6000030F8000030F9000030FA008030FB00D8
:102CD6007408F8027508031C750F722E732EF9021C
:102CE6007608031C760F782E792EFA027708031CD5
:102CF600770F7E2E7F2EFB027B08F7007A08F60000
:102D06007908F5007808F4008030F3068030F7067D
:102D160077087302031D992E76087202031D992EF9
:102D260075087102031D992E7408700203189C2EF3
:102D36009D2E9F2E0310A02E03140800F700F80105
:102D460000308B1B0130F2008B1383160313060829
:102D5600F1007108F300003083120313861B013063
:102D6600F4000030061B0130F500831603138601BC
:102D76007003031DBF2EC02EC42E1030F100710843
:102D8600F8007708F1007108F6007608F1000430C3
:102D96000310F10CFF3E031DCB2E7108780483123D
:102DA600031386008616F901FA010130F9070318A4
:102DB600FA0A0030FA0700307A0202300319790263
:102DC600031CE62EE72ED82E831203138612F90172
:102DD600FA010130F9070318FA0A0030FA07003041
:102DE6007A02023003197902031CFA2EFB2EEC2E0E
:102DF60077080F3978048312031386008616F901C3
:102E0600FA010130F9070318FA0A0030FA07003010
:102E16007A02023003197902031C122F132F042F92
:102E2600831203138612F901FA010130F907031818
:102E3600FA0A0030FA0700307A02023003197902E2
:102E4600031C262F272F182F1030831203138600FA
:102E560074182E2F322F831203138617352F8312E1
:102E6600031386137518382F3C2F83120313061786
:102E76003F2F83120313061373088316031386006A
:102E86008312031306080B108B10720803194C2FBC
:102E96004D2F4E2F8B1708000B1D522F532FF72F38
:102EA600D82F0A168A113D210A168A11C2308312BA
:102EB6000313C3002030C2000030C1000030C00040
:102EC6003D30A900B430A8003930A7005830A6001C
:102ED6000A168A1123200A168A117008F50071084D
:102EE600F6000030F61BFF30F700F80001300A123A
:102EF6008A15B8200A168A11780883120313AD00C2
:102F06007708AC007608AB007508AA000A128A1189
:102F16008A230A168A11831203132908C700280870
:102F2600C6002708C5002608C4000A128A15F02222
:102F36000A168A1183120313430883160313E90042
:102F460083120313420883160313E8008312031344
:102F5600410883160313E700831203134008831600
:102F66000313E6000B1183120313D701D8010B1DBF
:102F7600BD2FBE2FBA2F0B11013083120313D707B3
:102F86000318D80A0030D8075808803AFF00803066
:102F96007F02031DD02F03305702031CD32FD42FDB
:102FA600BA2F80308312031386068316031369082B
:102FB600F3006808F2006708F1006608F000403088
:102FC600F7008030F6000030F5000030F4000A16F5
:102FD6008A11FF250A168A11031CF22FF32F542F8C
:102FE6008312031386130B115608FF0055088A0037
:0A2FF600540E8300FE0E7E0E09004B
:103F520000340034C0344134013401340D340230B1
:103F62008316031385004830831203139F008030A9
:103F7200831603139F00831203131F1408007E0885
:103F82008A007F0882000A168A15C0270A168A1537
:103F92008000840A04087D0603190034FF0A03190D
:103FA200FE0AC42F83160313A1002108A000A00D4E
:103FB200A00DA00D831203131F08831603132006FE
:103FC200C7392006831203139F00080004308316AA
:103FD2000313A200A20BEB2F0000831203131F1581
:103FE2001F19F42FF52FF12F1E0883160313A400B7
:0E3FF2001E08A3002408A1002308A000080058
:02400E00393F38
:00000001FF
